{
  "_format": "hh-sol-artifact-1",
  "contractName": "WavePortal",
  "sourceName": "contracts/WavePortal.sol",
  "abi": [
    {
      "inputs": [],
      "stateMutability": "nonpayable",
      "type": "constructor"
    },
    {
      "inputs": [],
      "name": "getTotalWaves",
      "outputs": [
        {
          "internalType": "uint256",
          "name": "",
          "type": "uint256"
        }
      ],
      "stateMutability": "view",
      "type": "function"
    },
    {
      "inputs": [],
      "name": "getWavers",
      "outputs": [
        {
          "internalType": "address[]",
          "name": "",
          "type": "address[]"
        }
      ],
      "stateMutability": "view",
      "type": "function"
    },
    {
      "inputs": [],
      "name": "wave",
      "outputs": [],
      "stateMutability": "nonpayable",
      "type": "function"
    }
  ],
  "bytecode": "0x608060405234801561001057600080fd5b5061003c604051806060016040528060258152602001610a6e6025913961004160201b61032d1760201c565b6101c4565b6100dd816040516024016100559190610142565b6040516020818303038152906040527f41304fac000000000000000000000000000000000000000000000000000000007bffffffffffffffffffffffffffffffffffffffffffffffffffffffff19166020820180517bffffffffffffffffffffffffffffffffffffffffffffffffffffffff83818316178352505050506100e060201b60201c565b50565b60008151905060006a636f6e736f6c652e6c6f679050602083016000808483855afa5050505050565b600061011482610164565b61011e818561016f565b935061012e818560208601610180565b610137816101b3565b840191505092915050565b6000602082019050818103600083015261015c8184610109565b905092915050565b600081519050919050565b600082825260208201905092915050565b60005b8381101561019e578082015181840152602081019050610183565b838111156101ad576000848401525b50505050565b6000601f19601f8301169050919050565b61089b806101d36000396000f3fe608060405234801561001057600080fd5b50600436106100415760003560e01c8063635f29f8146100465780636fe15b44146100645780639a2cdc081461006e575b600080fd5b61004e61008c565b60405161005b9190610603565b60405180910390f35b61006c610225565b005b6100766102e2565b60405161008391906106a7565b60405180910390f35b60606100d26040518060400160405280601281526020017f57652068617665202564207761766572732100000000000000000000000000008152506001805490506103c6565b60005b600180549050811015610198576101856040518060400160405280600d81526020017f257320686173207761766564210000000000000000000000000000000000000081525060018381548110610155577f4e487b7100000000000000000000000000000000000000000000000000000000600052603260045260246000fd5b9060005260206000200160009054906101000a900473ffffffffffffffffffffffffffffffffffffffff16610462565b8080610190906107dc565b9150506100d5565b50600180548060200260200160405190810160405280929190818152602001828054801561021b57602002820191906000526020600020905b8160009054906101000a900473ffffffffffffffffffffffffffffffffffffffff1673ffffffffffffffffffffffffffffffffffffffff16815260200190600101908083116101d1575b5050505050905090565b60016000808282546102379190610717565b9250508190555061027d6040518060400160405280600d81526020017f257320686173207761766564210000000000000000000000000000000000000081525033610462565b6001339080600181540180825580915050600190039060005260206000200160009091909190916101000a81548173ffffffffffffffffffffffffffffffffffffffff021916908373ffffffffffffffffffffffffffffffffffffffff160217905550565b60006103256040518060400160405280601781526020017f5765206861766520256420746f74616c207761766573210000000000000000008152506000546103c6565b600054905090565b6103c3816040516024016103419190610625565b6040516020818303038152906040527f41304fac000000000000000000000000000000000000000000000000000000007bffffffffffffffffffffffffffffffffffffffffffffffffffffffff19166020820180517bffffffffffffffffffffffffffffffffffffffffffffffffffffffff83818316178352505050506104fe565b50565b61045e82826040516024016103dc929190610677565b6040516020818303038152906040527f9710a9d0000000000000000000000000000000000000000000000000000000007bffffffffffffffffffffffffffffffffffffffffffffffffffffffff19166020820180517bffffffffffffffffffffffffffffffffffffffffffffffffffffffff83818316178352505050506104fe565b5050565b6104fa8282604051602401610478929190610647565b6040516020818303038152906040527f319af333000000000000000000000000000000000000000000000000000000007bffffffffffffffffffffffffffffffffffffffffffffffffffffffff19166020820180517bffffffffffffffffffffffffffffffffffffffffffffffffffffffff83818316178352505050506104fe565b5050565b60008151905060006a636f6e736f6c652e6c6f679050602083016000808483855afa5050505050565b6000610533838361053f565b60208301905092915050565b6105488161076d565b82525050565b6105578161076d565b82525050565b6000610568826106d2565b61057281856106f5565b935061057d836106c2565b8060005b838110156105ae5781516105958882610527565b97506105a0836106e8565b925050600181019050610581565b5085935050505092915050565b60006105c6826106dd565b6105d08185610706565b93506105e08185602086016107a9565b6105e981610854565b840191505092915050565b6105fd8161079f565b82525050565b6000602082019050818103600083015261061d818461055d565b905092915050565b6000602082019050818103600083015261063f81846105bb565b905092915050565b6000604082019050818103600083015261066181856105bb565b9050610670602083018461054e565b9392505050565b6000604082019050818103600083015261069181856105bb565b90506106a060208301846105f4565b9392505050565b60006020820190506106bc60008301846105f4565b92915050565b6000819050602082019050919050565b600081519050919050565b600081519050919050565b6000602082019050919050565b600082825260208201905092915050565b600082825260208201905092915050565b60006107228261079f565b915061072d8361079f565b9250827fffffffffffffffffffffffffffffffffffffffffffffffffffffffffffffffff0382111561076257610761610825565b5b828201905092915050565b60006107788261077f565b9050919050565b600073ffffffffffffffffffffffffffffffffffffffff82169050919050565b6000819050919050565b60005b838110156107c75780820151818401526020810190506107ac565b838111156107d6576000848401525b50505050565b60006107e78261079f565b91507fffffffffffffffffffffffffffffffffffffffffffffffffffffffffffffffff82141561081a57610819610825565b5b600182019050919050565b7f4e487b7100000000000000000000000000000000000000000000000000000000600052601160045260246000fd5b6000601f19601f830116905091905056fea26469706673582212200d1898de5c612c9daae8aa3eaeda33176042e9344034444a15dbbecf24b2853464736f6c63430008000033596f20796f2c204920616d206120636f6e747261637420616e64204920616d20736d617274",
  "linkReferences": {},
  "deployedLinkReferences": {}
}